:1000000009C016C015C014C013C0DDC0CDC010C0DB
:100010000FC00EC011241FBECFE9CDBF10E0A0E677
:10002000B0E001C01D92A736B107E1F703D01EC1B1
:10003000E7CF08950F931F93CF93DF9394B714BE28
:1000400010926200809162008093610010926000C3
:1000500010926400109265001092630089E187BBE2
:1000600085E288BB88E10FB6F89481BD11BC0FBE54
:1000700093FD0CC080E395E72EE130E0F901319764
:10008000F1F70197D9F781E08093640013BE83B73D
:100090008FBD84E482BF8BEB86BF84E088BF89B7C5
:1000A000846089BF82E08FBD83E083BF8BE488B921
:1000B000789429E088E190E00FB6F894A89581BD86
:1000C0000FBE21BD20E030E0E0E0F0E0C0E0D0E095
:1000D00041E002E310E0809161008823E1F3109297
:1000E000610080916200882341F11092620080914A
:1000F00063008823A9F53196CE016DE270E090D0BF
:1001000063E070E09FD0C801861B970BBC01CF0154
:1001100099D0892B19F488B3842788BBE233F10581
:10012000F9F42196C330D10529F020E030E0E0E079
:10013000F0E018C0409360000CC02F5F3F4F2530A7
:10014000310581F4C09A80916300882311F04093B7
:10015000640020E030E0E0E0F0E0C0E0D0E002C089
:1001600020E030E080916500882379F0809166007E
:100170008F5F8093660080916600873031F4109223
:10018000660010926500C498C3988091640088232B
:1001900049F0C49A109264001092630010926600B5
:1001A00040936500A89597CF1F920F920FB60F92BC
:1001B00011248F9381E0809361008F910F900FBE87
:1001C0000F901F9018951F920F920FB60F92112447
:1001D0008F939F9391E090936200809160008823B9
:1001E00051F0C39AC09810926000909363001092EF
:1001F00066009093650080916400882351F0C49A52
:1002000010926400109263001092660081E0809367
:1002100065009F918F910F900FBE0F901F901895C2
:100220005527002480FF02C0060E571F660F771F58
:100230006115710521F096958795009799F7952F8F
:10024000802D0895AA1BBB1B51E107C0AA1FBB1F2D
:10025000A617B70710F0A61BB70B881F991F5A9552
:10026000A9F780959095BC01CD010895F894FFCF32
:00000001FF
